:100000000C9408030C9440030C9440030C940F25AB
:100010000C9440030C9440030C9440030C94400354
:100020000C9440030C9440030C94DF2C0C94B12DE1
:100030000C941F270C9440030C9440030C94400331
:100040000C9440030C9440030C9440030C94400324
:100050000C9440030C94C4270C9440030C9440036C
:100060000C9440030C9440030C9440030C94400304
:100070000C9440030C9440030C9440030C944003F4
:100080000C9440030C9440030C9440030C944003E4
:100090000C9440030C9440030C9440030C944003D4
:1000A0000C9440030C9440030C9440038906890689
:1000B000B506B5061D071708170817083B07A3075D
:1000C000B407B407081F0B1F2B1F3C1F441F4F1FF3
:1000D000521F551F581F9E1F9E1F5B1F5E1F631FD1
:1000E000701F7D1F801F841F911F192E402E382FD7
:1000F000402E382F8C2EAF2E382F062F152F35007F
:100100001E001F00200021002200500929001400B9
:100110001A000800150017003E002B00040016000E
:10012000070009000A004900E0001D001B0006004E
:10013000190005004C000352E300E20068622C0045
:10014000015100002D002700260025002400230077
:100150004F092E00130012000C0018001C003B0079
:10016000340033000F000E000D000B004100310081
:10017000380037003600100011004500A60030009E
:100180002F00697228000151000044003A003B0032
:100190003C003D003E001013A600010001000100DC
:1001A0000100010001002B08010001000100010015
:1001B000010001004C0501000100010001000100E7
:1001C0000100010001000100010001000100000028
:1001D000450043004200410040003F00460001004E
:1001E00001004D004B004E004A00010001000100DB
:1001F0004F0052005100500001000100010030008A
:100200002F0030022F020100010001000100010057
:100210002A000100000000000000000000000000B3
:1002200000000000000000000000000000000000CE
:1002300000000000000000000000000000000000BE
:1002400000000000000000000000000000000000AE
:10025000000000000000000000000000000000009E
:10026000000000000000000000000000000000008E
:10027000000000000000000000000000000000007E
:10028000000000000000000000000000000000006E
:10029000000000000000000000000000000000005E
:1002A0000000000000000000000000000000C25C30
:1002B000000000000000000000000000CD5C000015
:1002C0000000C55CC75CC95CC35C000000000000A6
:1002D000C65CC85CCA5CC45C000000520000000040
:1002E000000000000000000000000000000000000E
:1002F00000000000DE5C00000000000000000000C4
:1003000000000000000000000000000000000000ED
:1003100000000000000000000000000000000000DD
:10032000005C000000000000000000000000000170
:1003300001010101010101010202020202020202A5
:100340000203030303030303030404040404040477
:10035000050505050506060606060707070707083B
:10036000080808090909090A0A0A0B0B0B0C0C0CEE
:100370000D0D0D0E0E0E0F0F0F1010111111121288
:1003800013131414151516161717181819191A1A05
:100390001B1B1C1D1D1E1E1F202021222223242466
:1003A000252626272829292A2B2C2D2D2E2F3031A2
:1003B0003232333435363738393A3B3C3D3E3F40B4
:1003C0004142434445464748494A4C4D4E4F50519F
:1003D0005354555658595A5B5D5E5F616264656659
:1003E00068696B6C6D6F7072737577787A7B7D7EE0
:1003F0008082838587888A8C8E8F91939596989A30
:100400009C9EA0A2A3A5A7A9ABADAFB1B3B5B7BA47
:10041000BCBEC0C2C4C6C9CBCDCFD1D4D6D8DBDD1B
:10042000DFE2E4E7E9EBEEF0F3F5F8FAFDFF0000B8
:100430000000000000002A2B28000000000000003F
:1004400000000000000000000029000000002C1E39
:100450003420212224342627252E362D3738271EF6
:100460001F202122232425263333362E37381F041C
:1004700005060708090A0B0C0D0E0F1011121314B4
:1004800015161718191A1B1C1D2F3130232D350472
:1004900005060708090A0B0C0D0E0F101112131494
:1004A00015161718191A1B1C1D2F3130354C00005A
:1004B000000000000000000000000000000000003C
:1004C000000000000000000000000000000000002C
:1004D00000007E0F00D4FFFFFFC70000007810036C
:1004E000540069006D006F0074006800790000001E
:1004F00018036700650065006B002D007200610045
:100500006200620031007400000004030904090263
:100510005B00030100A0FA090400000103010100CF
:100520000921110100012240000705810308000193
:100530000904010002030000000921110100012249
:1005400022000705820320000107050303200001A4
:100550000904020001030000000921110100012229
:100560003200070584032000011201000200000090
:1005700008EDFEB1AB0001010200010660FF096158
:10058000A1010962150026FF009520750881020966
:1005900063150026FF00952075089102C00501092A
:1005A00080A101850319012AB700150126B700951E
:1005B0000175108100C0050C0901A1018504190114
:1005C0002AA002150126A002950175108100C00520
:1005D000010906A101050719E029E7150025019584
:1005E0000875018102950175088101050719002927
:1005F000FF150026FF009506750881000508190102
:100600002905950575019102950175039101C000B9
:1006100011241FBECFEFDAE0DEBFCDBF04B603FE6C
:1006200018C08091E0049091E104A091E204B0919F
:10063000E3048730904BA740B04B59F41092E0048C
:100640001092E1041092E2041092E304E0E0F8E377
:10065000099512E0A0E0B1E0EEE1F1E602C00590FC
:100660000D92A83CB107D9F724E0A8ECB2E001C094
:100670001D92A03EB207E1F70E94D1150C948D3077
:100680000C94000081E0089508951F93CF93DF93A9
:10069000C82F0E948E04823079F0833009F18130B6
:1006A00059F50E946B1C182F0E94681CD82F0E94BD
:1006B000651C90E045960BC00E946B1C182F0E9491
:1006C000681CD82F0E94651C90E086519F4F6FEFE9
:1006D00070E00E948C2F412F6D2F0E94611C0EC074
:1006E0000E946B1C182F0E94681CD82F0E94651C4A
:1006F00090E08C589F4FEBCF0E940E1C8C2FDF9107
:10070000CF911F91089584E0089581E008950E949B
:100710004203089508950E948A030895A5E0B0E079
:10072000E4E9F3E00C94FD2F49835A833091CF0222
:1007300089819A81311114C0662359F0222349F02E
:100740000E94D109182F682F89819A810E94AD09D2
:1007500003C00E94BF09182F69817A81812F04C0CC
:100760000E94D10969817A810E94D5222596E3E011
:100770000C941930FC01262F4081518162817381D4
:1007800084810E948E03089581E00895CF93DF93C2
:10079000EC0160E00E94BA03BE010E948B03DF916E
:1007A000CF910895E1E0F0E0DF0102C0AA0FBB1F86
:1007B0006A95E2F7BD01DF0102C0AA0FBB1F4A958F
:1007C000E2F7AD01462B01C0EE0F2A95EAF7942F10
:1007D0009823491302C08E2B0895E0958E23089527
:1007E000242F462F682F8091EB020E94D2030E9493
:1007F0000C0908950E942C1208950E942612089553
:1008000008950E9496080E9400042FEF84E39CE064
:10081000215080409040E1F700C0000008950E9400
:1008200001040E94EA2708950E9401040E940E28F4
:1008300008950F931F93CF93DF938C0161E00E9483
:10084000BA03EC01B8010E943F1E882309F44EC090
:10085000B801CE010E948703882309F447C0B8017C
:10086000CE010E942224882309F440C0B801CE01A1
:100870000E94C11F8823D1F1B801CE010E948823B4
:100880008823A1F1B801CE010E94321D882371F1A5
:10089000F8018281882331F1CA358DE5D807E9F066
:1008A00050F4C115FCE5DF0779F0CE3DDC45D1F40D
:1008B0000E94C60E0CC0CC35EDE5DE0759F080F085
:1008C000C73ADD4521F00EC00E940F040FC00E9400
:1008D00014040CC00E94FD0D05C00E94070E02C04A
:1008E0000E940B0EC8010E94850301C080E0DF91C9
:1008F000CF911F910F9108950E94F8260E94BF1A70
:100900000E94B50481E00E94B11B08950E94B904C1
:1009100080E00E94B11B0E9401270895982F9295B4
:100920009F7019F0892F24E001C020E0982F969540
:10093000969511F02E5F892F982F969509F02F5FCD
:10094000822F089508950E94A204089581E00895D9
:100950000E94A60408950895CF93C82F0E94A3046F
:100960008C2F0E94A804CF91089580E00E94AC04CF
:1009700008950E943A260E94AC040895CF930E94E5
:100980003A26C82F8091CA02C81779F0C093CA02CC
:100990000E948D276093CB027093CC028093CD028E
:1009A0009093CE028C2F0E94AC04CF910895ABE0BF
:1009B000B0E0EDEDF4E00C94FE2F4F83588769878B
:1009C0007A878B8761110E94450D9E012F5F3F4FF3
:1009D00086E0F90111928A95E9F785E0FE013796E4
:1009E000D90101900D928A95E1F789819A814C8114
:1009F0005D81452B31F09F3F31F491E08F3F19F439
:100A000003C091E001C090E090FF09C049815A8184
:100A10006B817C818D819E810E94710C05C0C90112
:100A20000E94C4038111F2CF2B96E2E00C941A309D
:100A3000FC01808191810E94FE090895CF93882353
:100A400009F49BC0C82F8238C1F40E943A2681FD68
:100A500094C069E380910C0290910D020E94C72618
:100A60000E94690D2FEF87EE93E021508040904067
:100A7000E1F700C0000069E319C0833801F50E9466
:100A80003A2680FD7AC063E580910C0290910D02B8
:100A90000E94C7260E94690D2FEF81EE94E021503D
:100AA00080409040E1F700C0000063E580910C02B7
:100AB00090910D020E94CA260E94690D5EC0843882
:100AC000C1F40E943A2682FD58C067E480910C026E
:100AD00090910D020E94C7260E94690D2FEF81EEB2
:100AE00094E0215080409040E1F700C0000067E4AE
:100AF000DDCF8CEF8C0F813AD0F46C2F80910C02FB
:100B000090910D020E949126882349F06C2F8091CC
:100B10000C0290910D020E94CA260E94690D6C2F52
:100B200080910C0290910D020E94C726C5CF80E2F1
:100B30008C0F883048F4C77081E001C0880FCA95D7
:100B4000EAF70E94280DB8CFEBE5EC0FE33040F454
:100B5000F0E0E559FD4F808190E00E9459260DC0DC
:100B6000C85AC73150F4EC2FF0E0EE0FFF1FE35CE2
:100B7000FD4F808191810E946F26CF910895882337
:100B800009F45DC0682F823879F40E943A2681FF0B
:100B900056C069E380910C0290910D020E94C72615
:100BA0000E94690D69E310C08338B9F40E943A26A7
:100BB00080FF45C063E580910C0290910D020E9478
:100BC000C7260E94690D63E580910C0290910D0289
:100BD0000E94CA260E94690D0895843879F40E9403
:100BE0003A2682FF2CC067E480910C0290910D029E
:100BF0000E94C7260E94690D67E4E6CF8CEF860F3E
:100C0000813A10F380E2860F883048F4677081E003
:100C100001C0880F6A95EAF70E942E0DDBCF8BE5A5
:100C2000860F833028F480E090E00E9459260895D2
:100C3000685A673120F480E090E00E946F260895A2
:100C40001F93CF93DF93182FEB010E941E0520976F
:100C500041F08FE99FE00197F1F700C00000219774
:100C6000F6CF812F0E94BF05DF91CF911F9108958C
:100C7000893319F060E070E002C060E570E00E9426
:100C800020060895882321F00E94280D0E94690DF6
:100C90000895882321F00E942E0D0E94690D089569
:100CA000A0E0B0E0E6E5F6E00C94F82F7C01162F0A
:100CB000C72FFC01D281058102950F700E941E0D85
:100CC0008823B9F0DD23A9F08C2F807F803421F0B8
:100CD00080E2810F883068F08091BF0382FF09C0F5
:100CE00082E00E94CB0D0E941E0D91E0D82ED926E5
:100CF00001C0D12CCC2EC2948FE0C8228C2D90E064
:100D00008C30910508F093C1FC01EA5AFF4F0C9416
:100D1000E12F8C2F807FCF70882311F0C295C07F88
:100D2000DD2399F0CC2309F46EC180E2810F883075
:100D300010F0111104C08C2F0E94280D03C08C2FBD
:100D40000E94380D0E94690D5EC1812F0E94BF056F
:100D5000CC2309F46CC180E2810F883038F1112373
:100D600029F18C2F0E943E0D24C08C2F807FCF70E4
:100D7000803211F0C295C07F112319F01130A1F11A
:100D80003DC08091BF0382FD17C0DD2349F0CC2315
:100D900029F08C2F0E94280D0E94690D80E034C13B
:100DA00080E00E94BF05CC2309F441C18C2F0E9432
:100DB0002E0D0E94690D3BC1DD2371F0002341F02F
:100DC000013031F40E94480D8C2B0E94520D2FC12E
:100DD0000E94480D8C2B1DC0002319F0013009F42E
:100DE00026C10E945F0D25C0DD2321F0063008F0EA
:100DF0001EC10EC0053008F01AC11BC0DD2361F012
:100E0000002331F0F701858180FFFDC08F7085835D
:100E10008C2F0E9442060BC1002359F0193309F0B0
:100E200003C1FFEF27EE83E0F15020408040E1F75F
:100E3000F9C08C2F0E944906FAC08C2F86958695A2
:100E4000837019F0813061F0F2C0DD2321F0812F31
:100E50009C2F937002C080E090E00E945926EFC062
:100E6000DD2321F0812F9C2F937002C080E090E061
:100E70000E946F26E4C08C2F837079F5D111DBC0FE
:100E8000412F429546954770440F440F212F2F70F4
:100E9000042E01C0220F0A94EAF714FF08C08FE065
:100EA00090E001C0880F4A95EAF7809501C080E084
:100EB000C695C695C370822BC23049F058F4C13034
:100EC00019F00E94FD08B7C00E94F708B4C00E9444
:100ED0000309B1C00E94F408AEC0DD2319F08C2FC5
:100EE000817001C08695882309F4A5C0412F4295E1
:100EF00046954770440F440F212F2F70042E01C0D8
:100F0000220F0A94EAF714FF08C08FE090E001C0B6
:100F1000880F4A95EAF7809501C080E0C695C6958E
:100F2000C370822BC23049F058F4C13019F00E94CE
:100F30004B0981C00E9445097EC00E9451097BC0B7
:100F40000E940C0978C0CF70DD2339F08C2F0E94ED
:100F50002009812F0E9442066EC0812F0E944906FF
:100F60008C2F0E942C0967C0123F21F128F4103FFA
:100F700041F0113FC1F043C0133F19F1143F79F024
:100F80003EC0DD2341F0053008F051C08C2F8F7139
:100F90000E9439094CC0063008F049C0F7CF809153
:100FA000BF0382FD18C0DD2339F08C2F8F710E94A2
:100FB00020093DC0DD23C9F38C2F8F710E942C09BD
:100FC00036C0DD2329F08C2F8F710E9417092FC0A6
:100FD0000E9413092CC0DD2349F0CF718C2F0E9491
:100FE000200963E08C2F0E94AD0D21C081E00E949A
:100FF000CB0D0230E0F082E00E94CB0D18C0DD2363
:1010000031F0002391F2812F0E941E0510C00023B1
:1010100099F2193349F49FEFE7EEF3E09150E04085
:10102000F040E1F700C00000812F0E94BF0588EF6B
:101030008C0D843020F40E943A260E94AC04DD20FE
:1010400089F00E941A0D80FD0DC0F70112820E94E6
:10105000140D0E942009C7010E944F080E94140D20
:101060000E942C09CDB7DEB7E8E00C9414300F9342
:101070001F93CF93DF93EC01688179818A810E946D
:10108000090A8C010E9457090E94E508B801CE01A7
:101090000E945006DF91CF911F910F910895CF9339
:1010A000DF93EC01988189812B813C81232B31F0E6
:1010B0008F3F31F481E09F3F19F403C081E001C00C
:1010C00080E080FD1AC0CE010E94190481110FC07A
:1010D0000E941E0D882389F08A81882371F08091F7
:1010E000BF0382FF0AC082E00E94CB0D06C0CE0182
:1010F0000E943708CE010E94C603DF91CF91089568
:1011000080E090E00E94592680E090E00E946F26E7
:101110000E94450D0E94690D089580910C029091E6
:101120000D020E94CD260E94800808950E94350D70
:101130000E948D08089592959F70963079F010F472
:10114000925001C09A50923068F4803F69F018F4D0
:10115000883E40F409C0843F29F406C0883E20F050
:10116000813F11F080E0089581E00895FC019081B5
:10117000818123813481232B31F08F3F31F481E051
:101180009F3F19F403C081E001C080E080FD07C0EB
:10119000808191810E94FE090E949B08089580E051
:1011A0000895A5E0B0E0E7EDF8E00C94FE2F259659
:1011B000E2E00C941A30A6E0B0E0E1EEF8E00C9426
:1011C000FE2F2696E2E00C941A30089508950E94AE
:1011D000E60808950E94E70808950E94EA088093AF
:1011E000EC020E94800808950E94ED0808959091F5
:1011F000EC02892B0E94ED0808959091EC0289235E
:101200000E94ED0808959091EC0289270E94ED0854
:1012100008950E94450308950E9409098093EB02F6
:101220000E948008089580E00E940C09089591E0D2
:1012300001C0990F8A95EAF7892F0E940C09089539
:1012400021E030E001C0220F8A95EAF78091EB029D
:10125000822B0E940C09089521E030E001C0220F8A
:101260008A95EAF720958091EB0282230E940C096F
:10127000089521E030E001C0220F8A95EAF78091BD
:10128000EB0282270E940C0908959091EB02892BB2
:101290000E940C0908959091EB0289230E940C0989
:1012A00008959091EB0289270E940C0908950895F2
:1012B000962F9770A1E001C0AA0F9A95EAF793E0E4
:1012C000769567959A95E1F7FB01EE0FFF1F6E0F7C
:1012D0007F1FFA01E60FF71F40E050E0682F70E033
:1012E00090819B01042E02C0369527950A94E2F75F
:1012F0002170219529272A23292721934F5F5F4FAA
:101300004330510569F708959B01782F777043E0CA
:10131000969587954A95E1F7FC01EE0FFF1F8E0F1A
:101320009F1FF901E80FF91F40E050E080E0219194
:1013300030E0072E02C0369527950A94E2F7217017
:101340003327042E01C0220F0A94EAF7822B4F5F45
:101350005F4F4330510559F70895282F9A3070F4A4
:10136000873060F4862F622F70E027E0929F600D37
:10137000711D112440ED52E00E94580908959A30E1
:1013800070F4873060F4292F90E060ED72E037E070
:10139000239F800D911D11240E948409089580E0EF
:1013A0000895CF92DF92FF920F931F93CF93DF9315
:1013B0006C010091EB028091EC02082BC7E0D0E0B9
:1013C00010E0C8010C2E02C0959587950A94E2F7AB
:1013D00080FD04C02197A8F7F12C07C0FC2EB601B0
:1013E0008C2F0E949D100197A9F38F2DDF91CF9133
:1013F0001F910F91FF90DF90CF900895CF93DF93CF
:10140000EC010E94D109BE010E949D10DF91CF9195
:1014100008951F93CF93DF93EB019091CF0299230F
:1014200021F0CB010E94FE0913C0882349F0CB01B3
:101430000E94D109182F682FCE010E94AD0904C067
:10144000CB010E94BF09182FBE01812F0E949D1061
:10145000DF91CF911F9108951F93CF93DF93C09198
:10146000ED0216E08091EE02C81799F0D0E01C9FC3
:10147000F0011D9FF00D1124E151FD4F408151817C
:1014800062817381848195810E94DB082196C770F7
:10149000E9CFDF91CF911F91089540911F035091A3
:1014A0002003609121037091220380912303909186
:1014B00024030E94DB0808950F931F93CF93DF93BB
:1014C0008091240382958F7009F05AC08091210386
:1014D000882309F455C08091ED021091EE026091CD
:1014E0001F0370912003C0912203D091230391E048
:1014F0006F3F09F090E0292F06E0811709F440C002
:10150000209721F07F3F21F030E003C031E001C09F
:10151000322F90E030FD31C0089FF001099FF00D9F
:101520001124DF01A151BD4F11963C911197371342
:1015300024C03C91361321C012963C911297311170
:101540001CC013964D915C9114974C1B5D0B483C4D
:10155000510598F4809124038F7080618093240357
:10156000EC50FD4F80818F70806180838FE193E02C
:101570000E944F080E942C0A03C001968770BDCFBD
:10158000DF91CF911F910F910895A1E1B0E0EBECB5
:10159000FAE00C94F52F8C0185E0F801DE011D9630
:1015A00001900D928A95E1F7F801E28090911F0376
:1015B00060912003209122033091230321153105EE
:1015C00031F06F3F31F481E09F3F19F403C081E0B7
:1015D00001C080E0F82FF1709F2E80FD40C1F8011E
:1015E00040815181A380B4808FE1C82E83E0D82E42
:1015F000F0902103F501E21BF30BFF2009F4DAC0A0
:1016000080912403E83CF10508F096C0282F207F44
:1016100009F053C0561313C0491311C0FE2CE1103A
:101620000EC08F708061809324030E944D0AC60112
:101630000E944F0880912403F80185834DC1A114B5
:10164000B10431F05F3F31F481E04F3F19F403C042
:1016500081E001C080E080FD03C081E08E2502C0F2
:1016600080E090E0F82FF170FF2E80FF1CC0809189
:10167000ED022091EE0236E0821709F40BC190E0F2
:10168000389FF001399FF00D1124E151FD4F618128
:10169000561306C06081461303C06281E61203C080
:1016A00001968770E9CFFE2CEE2009F415C18091D8
:1016B000240381608093240354C0561306C0491349
:1016C00004C0E11002C0F80199C0C8010E94B60828
:1016D000882361F1EE2051F120912403822F82951D
:1016E0008F7090E0029774F080911F039091200317
:1016F00098878F831986BB86AA862C87CE0107968A
:101700000E944F0886E0F801AFE1B3E001900D922E
:101710008A95E1F70E945C0A0E944D0A0AC056179A
:1017200011F1C8010E94B60881112CC0C8010E94A5
:101730004F08FF24F394D0C0282F207F81F77A2D03
:10174000B98AA88A6E2D89890E94D1088FE193E019
:101750000E944F0886E0F60111928A95E9F70E94EF
:101760004D0AF12CB9C04913DCCFE110DACFF801F2
:101770008583C8010E944F0886E0F60111928A9580
:10178000E9F7AAC0EE2091F220912403822F8295DE
:101790008F7090E002970CF4B5CF80911F03909169
:1017A00020039A8389831B82BD82AC822E83CE0163
:1017B0000196A6CFE83CF10508F044C0FE2CEE20CF
:1017C00009F4B4CF561330C049132EC0209124031E
:1017D00020FD21C0822F82958F70482F50E0411547
:1017E0005105C9F0F80125834F30510541F08F5F55
:1017F000982F9295907F822F8F70892B8583C801B7
:101800000E944F0886E0F801AFE1B3E001900D922D
:101810008A95E1F73CC086E0F801AFE1B3E00190C2
:101820000D928A95E1F758C0C8010E94B60881114F
:1018300069CF80912403816080932403C8010E94B2
:101840004F084AC07A2DB98AA88A6E2D89890E94CC
:10185000D10886E0F60111928A95E9F718C0EE20CA
:1018600009F464CFC8010E94B608F82E882309F451
:101870005DCF86E0F801AFE1B3E001900D928A956B
:10188000E1F78FE193E00E9418050E945C0A0E9434
:101890004D0A22C04D875E878D859E850E94FE0978
:1018A000292F22952F70223028F49F7039F0811152
:1018B00005C00BC0243028F49F7049F4805E883046
:1018C00020F0C8010E944F089F2CF92C05C0F80198
:1018D0009581907F99F7F9CF8F2D6196EBE00C946D
:1018E0001130ACE0B0E0E7E7FCE00C94FD2F4F8353
:1018F000588769877A878B879C87CE0107960E94D5
:10190000C50A8823D1F09F8188852A853B85232BB2
:1019100031F08F3F31F481E09F3F19F403C081E043
:1019200001C080E080FD47C04F81588569857A8578
:101930008B859C850E94DB083EC086E0FE013796C1
:10194000DE01119601900D928A95E1F7FF81E885FD
:101950006A857B856115710531F0EF3F31F481E0D7
:10196000FF3F19F403C081E001C080E080FD23C087
:101970002091EE0230E0C9010196877099274091CD
:10198000ED0250E084179507F1F1F983EA837D8336
:101990006C8396E0929FD001939FB00D1124A151CA
:1019A000BD4FFE01319601900D929A95E1F780931B
:1019B000EE020E942C0A16E08091ED029091EE0258
:1019C000891771F1189FC001112481519D4F0E9408
:1019D000C50A882329F1E091ED021E9FF001112430
:1019E000E151FD4F408151816281738184819581F4
:1019F0000E94DB088091ED0290E0019687709927A4
:101A00008093ED02D9CF0E9496081092EE021092B8
:101A1000ED02EFE1F3E086E0DF011D928A95E9F740
:101A20002C96E3E00C94193080912D0385958595D3
:101A30008595089580912D038770089590912D03C9
:101A4000977081E009F480E008958091380308954B
:101A500090913803892B8093380308958095909155
:101A6000380389238093380308951092380308952A
:101A700090913703892B8093370308958095909137
:101A8000370389238093370308951092370308950D
:101A900080912E03089508950E944B0D08950E9491
:101AA0004C0D08959091BF0392FF08C090912E03B2
:101AB000981721F080932E030E944F0D0895809176
:101AC0002E03882329F010922E0380E00E944F0DF0
:101AD0000895CF93DF93E0910C02F0910D02809175
:101AE00038038083E0910C02F0910D029081809187
:101AF0003703892B808380912E03882381F0E09126
:101B00000C02F0910D029081892B808380910C0250
:101B100090910D020E94852681110E945F0DC09157
:101B20000C02D0910D0248E050E065E273E0CE0176
:101B30000E942530892B59F088E0FE01A5E2B3E030
:101B400001900D928A95E1F7CE010E944E26DF9119
:101B5000CF9108950E944B0D08959091BF0392FF7D
:101B600011C098E0899F90011124262B20932D030A
:101B70000E94200980912D038595859585950E9469
:101B8000AA0D08950E942009089510922D0380E067
:101B90000E94AA0D089520912D03809582238093A1
:101BA0002D03982F977099F430E0482F082E000CE1
:101BB000550B2417350759F09091BF0392FF07C0CA
:101BC0008595859585950E942C090E94C50D0895DF
:101BD0009091BF0392FB222720F9281769F080FB20
:101BE00092F99093BF038091BE039091BF030E942E
:101BF0003D0E82E00E94CB0D08958091BF0382FBD1
:101C0000882780F991E089270E94E80D089581E0F6
:101C10000E94E80D089580E00E94E80D08956FEF9E
:101C20007FEF80E090E00E948730089580E090E0B0
:101C30000E945330883E9E4F19F40E94D41D08958F
:101C400080E0089582E090E00E944B30089583E0A8
:101C500090E00E944B300895CF9384E090E00E9482
:101C60004B30C82F82E290E00E944B302C2F30E0A6
:101C7000A901582BCA01CF910895CF93C92F682F7E
:101C800084E090E00E9469306C2F82E290E00E9434
:101C90006930CF910895AB01BC018FE090E00E94C4
:101CA0007B300895AB01BC0183E190E00E947B3062
:101CB000089560E070E0CB010E94520E089560E04C
:101CC00070E0CB010E944B0E0E94590E089568EE01
:101CD0007EEF80E090E00E94873060E082E090E05C
:101CE0000E94693060E083E090E00E9469301092C9
:101CF000EC0260E084E090E00E94693064E082E2FF
:101D000090E00E94693060E085E090E00E946930D8
:101D100060E086E090E00E9469306FEF87E090E03D
:101D20000E94693040E050E0BA0188E090E00E94F3
:101D30007B3060E08DE090E00E94693040E050E050
:101D4000BA0188E190E00E947B3060E087E190E09A
:101D50000E94693040E050E0BA018CE190E00E94BE
:101D60007B3060E070E080E290E00E94873040E0ED
:101D700050E0BA0188E190E00E947B3080E00E9450
:101D8000ED1D0E94221E0E945F0E08950E94670EA4
:101D90000895682F8EE090E00E94693008950E94B7
:101DA0008D276093490370934A0380934B0390936C
:101DB0004C036093450370934603809347039093CD
:101DC000480308950E94C313089508950E94E50EE4
:101DD00008950E94440308950E94E50E08950E940C
:101DE000EC0E08950E94E50E08958BED91E10E949E
:101DF00030260E94F20E0E94EF0E08950E94E60E19
:101E00000E94E50E08950E94F7110E94AB040E9403
:101E10007B1B08950E9478270E9481110E94321E28
:101E20000E94DB130E9422130E94030F0E94A91F2D
:101E30000E94ED130E94E90E0895AAE0B0E0E3E2EB
:101E4000FFE00C94F52F0E9447138BE3E82E83E00C
:101E5000F82E670100E0F60111916F01802F0E94BA
:101E6000121281270F5F0A3019F08823A1F322C0D4
:101E7000811120C00E9481278C01809139039091AB
:101E80003A030817190709F456C08FEF89838A832C
:101E90001B820E9481278160782F9D838C834981DA
:101EA0005A816B818D810E94D70410933A0300936D
:101EB000390341C080914D0381FD0E9418120E9498
:101EC000E20E982E10E0812F0E941212B82EF70118
:101ED000C080C82641F100E0DD24D3948C2D8D21F3
:101EE000E1F0AA24A3948B2D8D2109F4A12C992033
:101EF00079F00E831F83A8860E9481278160782F46
:101F00009A8789874E815F8168858A850E94D70478
:101F10004A2D602F812F0E9447190F5FDD0C07307B
:101F2000E9F6F701B0821F5FFFEFEF1AFF0A1A30E0
:101F300051F60E94CF0E0E94C3130E94BF1A0E9446
:101F4000BE042A96EBE00C941130CF93DF930E94ED
:101F5000A210EC01811522E59207F0F5811531E51B
:101F6000930708F0ABC0883E910528F5803E9105A7
:101F700008F0DFC0883A910570F4853A910508F0C1
:101F80007AC08130910509F473C008F4CFC004977A
:101F900008F0CFC0CBC08F3B910508F0C7C0C85A2E
:101FA000D0E0CC0FDD1FC259DD4F0990D881C02D84
:101FB000CE019464BFC0811540E5940708F069C064
:101FC000C11580E4D80708F060C0CE019A9581154C
:101FD0009F4108F4AEC0AAC0811536E5930728F5E5
:101FE000811545E5940708F086C0C11584E5D8073A
:101FF00008F07BC0AE01437055272C2F26952695FF
:10200000C115D34508F060C081E090E002C0880FA0
:10201000991F4A95E2F740E2249F90011124EC01B8
:10202000C22BD32BCE019C6885C081154AE594074D
:1020300080F4C11589E5D80708F066C0C11528E508
:10204000D20708F473C0DC2FCC27CE01806F906AD2
:1020500071C090568115904208F068C08D2F8F7125
:102060000E943E11DD27D0628F719E01382B5CC02B
:1020700081E090E05FC0C55AD0E0C456DD4F888152
:10208000C82FD0E0CE01906455C0DF70CE01906AB9
:1020900051C08370992721E030E002C0220F331F26
:1020A0008A95E2F79C2F9695969540E2949FE001E1
:1020B0001124C22BD32BCE019D683CC0D82FCC2736
:1020C000CE01816F906A36C081E090E002C0880F37
:1020D000991F4A95E2F740E2249F90011124EC01F8
:1020E000C22BD32BCE019A6825C0DC2FCC27CE0182
:1020F000846F906A1FC00E943E118F7190E0D82FAC
:10210000CC27CE01906216C08C2F8F700E943E119A
:1021100094E0D695C7959A95E1F7CF70D0E0DC2F83
:10212000CC27D0699E01282BC90104C080E090E033
:1021300001C0CE01DF91CF9108950E94D5220E9467
:10214000A50F08958238910569F1B0F481339105A6
:1021500009F475C048F48932910509F467C08A32E0
:10216000910509F471C008958533910509F459C0AA
:1021700089339105B9F00895833E910589F138F4CA
:10218000803E9105D1F0823E910529F10895863E69
:102190009105C9F1873E9105D9F1843E910509F079
:1021A0006CC027C02091BE0320FD57C021FD55C043
:1021B0002091BF0323FD5BC008958091BE0380FD85
:1021C00048C08091BF0380FF48C08091BE0384FD5A
:1021D00046C083EE51C08091BE0382FF3CC0F5CF64
:1021E0008091BE0382FD37C08091BF0380FD35C062
:1021F000ECCF8091BF0381FF36C08091BE0384FD88
:102200002EC087EE39C08091BE0383FF2AC0F5CF70
:102210008091BE0383FD25C08091BF0381FD23C053
:10222000ECCF8091BE0385FD22C01FC08091BE030C
:1022300085FD1BC08091BF0383FF19C00AC0809138
:10224000BE0386FD16C017C08091BE0386FD13C075
:1022500010C089E311C082EE0FC080EE0DC080E097
:102260000BC086EE09C084EE07C085E305C089E295
:1022700003C08AE201C081E390E008959091BE031B
:1022800092FF0DC0282F2871283019F4877F8460B1
:1022900006C0282F2471243011F48B7F886093FFAF
:1022A0000DC0282F2871283119F4877E846106C05B
:1022B000282F2471243111F48B7E88612091BF0373
:1022C00020FF0DC0382F3871383019F4877F8160B6
:1022D00006C0382F3171313011F48E7F886021FFB4
:1022E0000DC0282F2871283119F4877E816106C01E
:1022F000282F2171213111F48E7E886194FD877E13
:1023000008951092BA031092BB031092BC0310926E
:10231000BD030895CF92DF92EF92FF926B017C0193
:102320000E94C31381110EC00E948D27C61AD70ABE
:10233000E80AF90AC092BA03D092BB03E092BC0348
:10234000F092BD03FF90EF90DF90CF9008950F9330
:102350001F930E94C313882319F00E948D270EC07B
:102360000E948D270091BA031091BB032091BC03FA
:102370003091BD03600F711F821F931F1F910F913A
:102380000895CF92DF92EF92FF926B017C010E9441
:10239000C313882329F0C701B6010E94A82706C0ED
:1023A0000E94A7116C197D098E099F09FF90EF907B
:1023B000DF90CF90089580E008950E940F0E089559
:1023C0000E9447138FE39CE90197F1F700C00000DA
:1023D0000E94471380E00E94121280FF04C00E94F6
:1023E000DD110E94EA2708950E94E01108950E94DD
:1023F000160E811102C00E94C60E0E94220E80930A
:102400004D030E942C0E9093BF038093BE030E9445
:10241000F4110E94270E0E94F4088091EB020E94A2
:1024200009090895E82FF0E0E553FC4F80810895F5
:10243000089580EA8A95F1F7089500C008950E94F2
:102440001912089508950E94221208950E942312DD
:1024500008950E94221208950E94291208950E9450
:1024600022120895A5E0B0E0E8E3F2E10C94FB2F1E
:102470000E94C3136091D5038823E9F185E0F82E0B
:102480008E010F5F1F4FF8018F2D11928A95E9F78A
:10249000862F90E0B80185539C4F0E94FB13882340
:1024A00089F08091C00390E045E050E0B801855389
:1024B0009C4F0E94253021E020934E03892B61F42C
:1024C00010E016C080914E038823D1F3F8011192D9
:1024D000FA94E9F710924E03A091C003B0E0A5531F
:1024E000BC4F85E0F80101900D928A95E1F711E06B
:1024F0000E94FD030DC070E065537C4F8091C003C6
:1025000090E085539C4F0E9484140E942F1210E08B
:10251000812F2596E5E00C941730F894E82FE2958A
:10252000EF70F0E031A1282F2F7081E090E001C022
:10253000880F2A95EAF7982F9095932391A392A15B
:10254000892B82A3789408950F931F93CF93DF93E1
:10255000C6EAD2E089918F3F11F00E948D1282E08D
:10256000CB3AD807B9F7CFE9D2E006EA12E0899171
:102570008F3F11F00E948D120C171D07C1F7DF91DC
:10258000CF911F910F910895A0E0B0E0EAECF2E145
:102590000C94F82F8C01C62FD0E0CE018A559D4FA8
:1025A0007C01FC0190819F3F09F447C0D62EF8942E
:1025B000E92FE295EF70F0E081A19F7021E030E01B
:1025C00001C0220F9A95EAF7822B81A382A1209560
:1025D000282322A378940E941D12EFE9F2E046EA34
:1025E00052E031E0C12C21912F3F89F0A22FA2951A
:1025F000AF70B0E090968C9190E02F7002C09595EE
:1026000087952A95E2F780FD02C0832F01C080E004
:10261000C82A330F4E175F0731F7F70180818F3FCC
:1026200011F00E948D1261E0C11001C060E08D2D9B
:102630000E941F12C00FD11FC882CDB7DEB7E8E0DD
:102640000C94143080910E0280910E02811102C010
:1026500095E001C090E09093D50385E0891B8093BD
:10266000C0030E94A4128AE0EBECF3E0DF01982F94
:102670001D929A95E9F7E1ECF3E0DF011D928A954E
:10268000E9F785E00E9485130E94FA030895AAE005
:10269000B0E0EDE4F3E10C94FB2F8E010F5F1F4FD0
:1026A0008AE0F80111928A95E9F7F12C6F2DC801A3
:1026B0000E94C412F394F5E0FF12F8CF4AE050E014
:1026C000B80181EC93E00E94253021E0009709F4E5
:1026D00020E0892B41F08AE0F801A1ECB3E0019001
:1026E0000D928A95E1F76091D50370E065537C4FB8
:1026F00045E081EC93E00E948613182F0E9432126D
:10270000812B2A96E5E00C9417300895EF92FF9202
:102710000F931F93CF93DF937C018B01C42F222350
:1027200049F081E0809351030E94812790935003E8
:1027300080934F0380915103811102C080E01AC041
:1027400080914F03909150030E9499270597B0F311
:10275000D0E0AE01B701C8010E942530892B39F0C5
:10276000AE01B701C8010E94323081E001C080E0B3
:1027700010925103CDB7DEB7E6E00C9416308FB15E
:102780008295817008958091540381110DC00E943B
:102790006B2F811102C082E001C081E0809354035D
:1027A000823011F40E94662F81E0909154039130A1
:1027B00009F080E0089584988C988FE891E0019763
:1027C000F1F700C000000E94BF1380930E020E9428
:1027D000C31381110E94331408950E94C313811101
:1027E00002C00E943614089581E0909155039A30FA
:1027F00008F080E008950F931F93CF93DF93EC01CF
:102800008B01809155038A3038F4B801CE010E94C3
:10281000811481111DC00AC080915203909153030D
:102820000E949927843F914080F715C080915503FD
:102830008F3F19F08F5F80935503809155038A3045
:1028400060F00E948127909353038093520303C04A
:102850001092550302C080E001C081E0DF91CF916A
:102860001F910F9108950E94CA2408950E94CD24BB
:102870000895A0E0B0E0EFE3F4E10C94F92F7901C2
:10288000C82F880FDD0B41155105A9F0FE0193E01B
:10289000EE0FFF1F9A95E1F7E15FFD4F8181928175
:1028A0008A5A9C4F208130E04217530708F49A015E
:1028B000A9010E943230CE010E94B525D82E88236E
:1028C000D1F001151105B9F083E0CC0FDD1F8A9519
:1028D000E1F7FE01E15FFD4F438150E0041715076A
:1028E00008F4A801C15FDD4F6C817D816A5A7C4F7D
:1028F000C7010E9432308D2DCDB7DEB7E7E00C94D2
:1029000015300E94761508950E948D150895A4E053
:10291000B0E0EDE8F4E10C94FC2F60916D03709150
:102920006E0380916F03909170030E94A827643614
:1029300071058105910528F10E94A711DC01CB01E9
:102940000296A11DB11D89839A83AB83BC8300E0ED
:1029500010E020E030E044E050E0BE016F5F7F4FC8
:1029600082E00E943914182F882361F00E948D277D
:1029700060936D0370936E0380936F039093700365
:1029800001C011E0812F2496E4E00C941830A0E0FF
:10299000B0E0EDECF4E10C94F62F7C015B016A01F0
:1029A0000E94F413811103C001E010E002C00AE0AC
:1029B00010E0C1E0D0E0B501C701F6010995811131
:1029C00015C021960C171D0794F0CC9F9001CD9F48
:1029D000300D300D112480E090E045E34A95F1F789
:1029E0000000019682179307C1F7E5CF81E0CDB7CC
:1029F000DEB7EAE00C941230A6E0B0E0E2E0F5E1E8
:102A00000C94F62F7B01C090AB02D090AC0201E099
:102A100010E09E012A5F3F4F40E050E060E070E030
:102A200080E00E943914182F882309F43EC0560113
:102A30008FEFA81AB80A6091690370916A038091B8
:102A40006B0390916C030E94A82764367105810581
:102A5000910518F105E010E09E012F5F3F4F40E027
:102A600050E060E070E081E00E943914182F65E0CA
:102A700070E0C5010E94AA1F91E02E81281390E00A
:102A8000192339F10E948D276093690370936A03BB
:102A900080936B0390936C0311C065E070E0C501F7
:102AA0000E94AA1F9E818913D5CF85E0F601319639
:102AB000DE01119601900D928A95E1F7112349F0FC
:102AC00085E0FE013196A4E6B3E001900D928A956F
:102AD000E1F785E0E4E6F3E0D70101900D928A95F5
:102AE000E1F7812F2696EAE00C9412300F931F93A2
:102AF000CF93DF93EC018B014CEF54E10E94C7149C
:102B0000882331F047E854E1B801CE010E94C71490
:102B1000DF91CF911F910F9108950F931F93CF9342
:102B2000DF93C091AB02D091AC02CE01019625E0BB
:102B3000FB01DC0101900D922A95E1F765E070E060
:102B40000E94AA1F88836E817F8188859985009164
:102B50006003109161032091620330916303601759
:102B600071078207930751F06093600370936103CC
:102B700080936203909363030E948A11DF91CF9147
:102B80001F910F9108950E94C8290E940A0F0E9468
:102B9000D52908950E94DA290E941D0F0E94F42968
:102BA00008950E9418270E94AE290E94F50E0E94E7
:102BB000C3150E94CA150E94FE0EFBCFEF92FF9232
:102BC0000F931F93CF93DF938B01682F11110AC0CE
:102BD000442329F0E82FF0E0E25DFC4F6491762F6A
:102BE000862F75C0212F30E0E82FF0E0442321F03C
:102BF000E25DFC4FE491F0E046E0049FC001112447
:102C0000CFEFD0E0BE010E94782F4BEA4603C0010F
:102C1000479F900D1124800F911D800F911D982FBB
:102C2000990F890FAE01421B530B4E9FD0014F9F4E
:102C3000B00D5E9FB00D11249B2F189FA001112491
:102C4000452F55278E01041B150B0E9FA0010F9FCA
:102C5000500D1E9F500D11247E01E81AF108E29ECE
:102C60008001E39E100DF29E100D1124212F3327B9
:102C7000C21BD30BCE9F9001CF9F300DDE9F300D36
:102C8000112462307105A9F048F46115710569F0ED
:102C900061307105C9F48B2F752F0DC0643071053B
:102CA00081F058F06630710579F47E2F8B2F932FC9
:102CB0000DC0832F7B2F9E2F09C08E2F7B2F952F2A
:102CC00005C08E2F732F02C07E2F852F692FCDB7A1
:102CD000DEB7E6E00C94163041E00E94DE15089560
:102CE00020E030E0869F212D969F200D311D11247C
:102CF000C9010895BC018230910508F40895613E30
:102D00008EE1780748F49B0195E0369527959A95D2
:102D1000E1F748E0420F01C04FEF91E0242F30E08F
:102D2000290F311D35952795229FF001239FF00D26
:102D3000F00D11246E177F0718F44FEF420F04C0F7
:102D40002F3F39F091E0920F491740F78FEF890F2D
:102D500008958FEF08954095282F429F412D11240B
:102D6000842F089522E8241B08F420E0620F0895C0
:102D7000EF92FF920F93970195E0099F200D311D6F
:102D800011242F3F310519F010F02FEF30E020957E
:102D9000382F320F08F43FEF832F0F91FF90EF9001
:102DA0000895EF92FF920F93E00EF11CF90137FFA7
:102DB00003C0F195E195F10924E0EE0FFF1F2A957C
:102DC000E1F7EF3FF10519F014F0EFEFF0E09A01B1
:102DD00057FF03C031952195310994E0220F331F2D
:102DE0009A95E1F72E173F070CF4F901EE0DFF1D40
:102DF000EF3FF10519F010F0EFEFF0E02E2F2095E6
:102E0000382F320F08F43FEF832F0F91FF90EF9090
:102E10000895EF92FF920F93972F093438F4B7017A
:102E2000601B71096F3F710519F010F06FEF70E0D2
:102E3000485F5F4F4131510540F0A901485F5F4F46
:102E40004131510510F06FEF70E06095482F460F4B
:102E500008F44FEF842F37FF02C02D5F3F4F3595A9
:102E60002795359527956091D703620F792F0F919C
:102E7000FF90EF900895EF92FF920F939701201B20
:102E800031092F3F310519F010F02FEF30E0322FCC
:102E90003095482F430F08F44FEF842F620F0F91A6
:102EA000FF90EF900895EF92FF920F939701201BF0
:102EB00031092F3F310519F010F02FEF30E0209548
:102EC000382F320F08F43FEF832F0F91FF90EF90D0
:102ED000089590917103892B8093710308950E9446
:102EE0006C16089546E050E06CE170E086ED93E0EA
:102EF0000E945930109271030895E6EDF3E089E1E4
:102F0000808380913A0290913B02A0913C028183A0
:102F10009283A3838FE784838FEF858346E050E01D
:102F20006CE170E0CF010E94593010927103089556
:102F300080E008950F931F93CF93DF93C82FD62F70
:102F40008A010E94981797E0C99FF0011124E05070
:102F5000FF4FED0FF11D90819F3F29F0F801E80F21
:102F6000F11D90838F5FDF91CF911F910F91089595
:102F7000E091B302F091B40209950895E091AF0297
:102F8000F091B00209950895A0E0B0E0EAECF7E115
:102F90000C94F62F8C017B01FC01C0818EE0C89F50
:102FA000C02D1124DEE0DC0FD33408F0D2E42091F0
:102FB000DA0331E0230F08F42FEF30E040E050E077
:102FC0006FEF7FEF80E090E00E94C22F6901CD1784
:102FD00008F041C0AC2EB12CF501E653FE4F9081B4
:102FE000F80181818923A9F19091E003915097FD27
:102FF00015C0292F092E000C330BF901E052FC4FAC
:103000008189C813F3CF220F331FF901E052FC4F1F
:10301000218D328D2C153D0548F701C09601609138
:10302000DA0341E0640F08F46FEFC9010E947016E3
:10303000AC016091D7037091D8038091D903F70157
:1030400009950E946F17462F282F672FC5010E94F0
:10305000BE17CF5FBCCF81E0D23408F080E0CDB79F
:10306000DEB7EAE00C9412306BEA76E10E94C417F6
:10307000089562EB76E10E94C4170895A9E0B0E0DC
:10308000E4E4F8E10C94EE2F8B834B013A01DB0171
:103090001C918EE0189F102D1124BEE0B10FB98352
:1030A000B33410F0E2E4E983F091E003FA8389811C
:1030B000181708F07FC0A12EB12CF501E653FE4F82
:1030C0009081D40111968C91892309F471C02090CC
:1030D000D7033090D8034B80512CC501880F991F1E
:1030E000FC01EA5BFE4FFD83EC83C501880F991F4D
:1030F0009C01295B3E4F3F832E83FA814F1608F0D7
:1031000047C0E42CF12CAC81BD81BC91EB2FF0E0E9
:10311000F987E887F701E052FC4F818128853985DE
:10312000281B310939872887AE81BF81CC90D12CEB
:103130008185C81AD108F901EE9F9001EF9F300DEB
:10314000300D1124CC9CC001CD9C900D900D11240C
:10315000820F931F0E947A16082F6091DA0321E0F4
:10316000620F08F46FEFF701EE0FFF1FE052FC4F04
:10317000818D928D0E9470167C019601488559853B
:10318000B101852DF30109951B014394582EB5CF4C
:103190002091D903352D329F312D1124832FB10178
:1031A0000E946F17462F282F672FC5010E94BE1758
:1031B0001F5F7DCF81E09981923408F080E02996ED
:1031C000E2E10C940A3048EB56E1BC0180E00E9439
:1031D0003E18089541ED56E1BC0180E00E943E1882
:1031E000089549E057E1BC0180E00E943E1808952F
:1031F0004BE357E1BC0180E00E943E18089543E58F
:1032000057E1BC0180E00E943E180895A0E0B0E0C4
:10321000ECE0F9E10C94F92F8C01DC018C91CEE00B
:103220008C9FC02D1124DEE0DC0FD33408F0D2E4F3
:103230006091D7037091D8038091D9030E946F17D2
:10324000F62EE72ED82ECD1798F4EC2FF0E0DF0104
:10325000A653BE4F8C91D80111969C91982331F0C2
:103260002D2D4F2D6E2DCF010E94BE17CF5FEBCFBE
:1032700081E0D23408F080E0CDB7DEB7E7E00C940F
:103280001530E091B102F091B20209950895CF9204
:10329000DF92FF920F931F93CF93DF93CDB7DEB7EB
:1032A00028970FB6F894DEBF0FBECDBF182F062F9C
:1032B000F42E0E94C313882309F46FC0FF2049F045
:1032C000AE014F5F5F4F602F812F0E949A17F82E3B
:1032D00001C0F12C0F2D10E0809172039801280F8E
:1032E000311D293031056CF188E090E06C01C01A85
:1032F000D10AB8016D587C4FA60183E793E00E9484
:103300003230B80165587C4FA6018BE793E00E94EC
:103310003230A601440F551FB801660F771F65575D
:103320007C4F8BE893E00E943230B8016D577C4FA0
:10333000A60183E893E00E94323088E08F198093E1
:10334000720310917203DE01119640E0842F810F09
:10335000F41609F190E05D91252F30E0BC016E5824
:103360007C4FF901EE0FFF1FEA5BFE4F0081FB016E
:103370000183220F331FF901E95BFE4F2081FB011E
:103380002187518B880F991FFC01EE58FC4F128E3C
:10339000118E4F5FDBCF8093720328960FB6F8949F
:1033A000DEBF0FBECDBFDF91CF911F910F91FF9078
:1033B000DF90CF9008958091DC039091DD03A09180
:1033C000DE03B091DF0388279C70AA27BB272AE081
:1033D000B695A795979587952A95D1F7823091054F
:1033E000A105B10571F083309105A105B10569F022
:1033F00040E00197A105B10511F060E008C064E16B
:1034000002C044E160E080E003C044E164E184E1A3
:103410000E9441190895CF93C82F80912B028C13DD
:103420000DC02091D603237030E040912C0250E073
:1034300081E02417350719F480E001C081E0817034
:1034400080932A028091DB0390912902981739F02A
:103450008093290240E060E080E00E944119C4307E
:1034600029F488E292E00E94E31808C0C530D8F53C
:10347000C130C1F488E292E00E94061990912802BE
:103480009F5F90932802811152C082E080932702AF
:1034900080912A0281114BC0C11149C083E0809301
:1034A000270245C0C13058F480912A02882329F0B0
:1034B00040E060E080E00E94411980E0DFCFC23050
:1034C00029F488E292E00E943418D8CFC33029F45E
:1034D00088E292E00E943918D1CF809128028F5F54
:1034E00080932802D2CFC73029F488E292E00E946C
:1034F000F818C4CFC83070F4C53029F488E292E0DF
:103500000E94EA18BBCFC63041F788E292E00E94E1
:10351000F118B4CFC83029F488E292E00E94FF1875
:10352000ADCFCF3FD1F60E94DB1982E0B8CFCF916B
:10353000089508950E94991A08950E949A1A0E9467
:10354000991A089508950E94A21A0895CF93DF93BF
:10355000FC01C081C1508EE0C89FC02D1124DEE067
:10356000DC0FD33408F0D2E46D2F8C2F0E94A31A05
:103570006D2F8C2F0E94A21ADF91CF9108954F9248
:103580005F926F927F928F929F92AF92BF92CF92F3
:10359000DF92EF92FF92CF9360919B0370919C0317
:1035A00080919D0390919E030E94C1116B017C014B
:1035B0000E94A7114B015C0160939B0370939C03D5
:1035C00080939D0390939E03A0917203E2E7F3E042
:1035D0008A2F90E04FEF5FEF60E070E04C195D09DB
:1035E0006E097F09A91799F0218D328D2901612C6F
:1035F000712C441555056605770510F4815004C0FB
:103600002C0D3D1D328F218F9F5F3296EBCF809323
:10361000720380919F03811108C0C091D6038C2F43
:10362000837019F0C695C69501C0C0E0809127024D
:103630008130D9F028F0823021F1833079F14DC00A
:10364000109228028092DC039092DD03A092DE03A8
:10365000B092DF0389E2E2E7F3E0A0EEB3E001908D
:103660000D928A95E1F781E016C08C2F0E940B1A0B
:10367000CC2399F10E949D1A88E292E00E94A61A3A
:103680002CC0C0932B028091D603837080932C02B0
:103690000E94B81783E0809327021FC080917103B6
:1036A000882351F046E050E06CE170E086ED93E055
:1036B0000E945930109271036091DC037091DD0318
:1036C0008091DE039091DF030E94C1116132710588
:1036D0008105910510F010922702CF91FF90EF9095
:1036E000DF90CF90BF90AF909F908F907F906F9022
:1036F0005F904F900895E091AD02F091AE02099570
:103700001092E003E9EFF3E08FEF9FEF8193919345
:1037100024E0E930F207D1F710927203EBE8F3E00E
:103720008FEF9FEF8193919323E0EB39F207D1F76D
:103730000E94160E811104C00E94C60E0E947D17C1
:1037400046E050E06CE170E086ED93E00E943B3093
:10375000109271038091D6038C7F11F40E947D1723
:103760000895CF93C82F882391F080919F038111F2
:103770000EC00E940B1A10922B028091D603837008
:1037800080932C020E94B81783E080932702C09395
:103790009F03CF910895E6EDF3E0208191E0922719
:1037A0009083109227020E946917089581E00E9479
:1037B000CB1B08958091D603837011F410922702D9
:1037C0008091D6038C7F81608093D6030895809189
:1037D000D603837011F0109227028091D6038C7F5C
:1037E0008093D60308959091D603937091F0811140
:1037F00002C0946007C0893010F0906203C0880F47
:10380000880F982B9093D603862F109227020E9440
:103810006917089560E00E94F31B08950E94E71B5A
:1038200046E050E06CE170E086ED93E00E943B30B2
:10383000109271038091D603982F937021F0869592
:1038400086950E940A1C089561E00E94F31B08956A
:103850008091D603869586950895682F9091D6031A
:10386000969596959F5F993010F4892F01C081E05D
:103870000E94F31B089581E00E942D1C0895682F7B
:103880009091D60396959695915011F0892F01C08D
:1038900088E00E94F31B089581E00E943F1C089578
:1038A0009091D603937061F08093D7036093D8030F
:1038B000493C08F048EC822F4093D9030E946917D5
:1038C000089520E00E94501C08958091D703089528
:1038D0008091D80308958091D9030895A6EDB3E0AF
:1038E0001196EC911197F0E0282F13964C911397B5
:1038F00012966C91CF0108960E94501C089581E0A9
:103900000E946E1C0895A6EDB3E01196EC911197FC
:10391000F0E0282F13964C91139712966C91CF01DB
:1039200008970E94501C089581E00E94831C08950E
:10393000E6EDF3E0628120E1620F08F46FEF918120
:10394000282F4381892F90E00E94501C089581E028
:103950000E94981C0895E6EDF3E0628120E1621B6D
:1039600008F460E09181282F4381892F90E00E9424
:10397000501C089581E00E94AB1C0895E6EDF3E031
:10398000438120E1420F08F44FEF9181282F62819B
:10399000892F90E00E94501C089581E00E94BE1C77
:1039A0000895E6EDF3E0438120E1421B08F440E096
:1039B0009181282F6281892F90E00E94501C0895E8
:1039C00081E00E94D11C08958093DA0380E00E9478
:1039D000691708958091DA030895E6EDF3E02481F4
:1039E00030E1230F08F42FEF24830E946917089514
:1039F00081E00E94ED1C0895E6EDF3E0248130E1C2
:103A0000231B08F420E024830E946917089581E0B5
:103A10000E94FC1C08950895FC01EE0FFF1F8E0FFD
:103A20009F1FFC01E75FFB4F618340832283089562
:103A3000E9E0F4E094E0EF3CF90729F0818360834A
:103A400042833396F7CF089562E470E089E094E012
:103A50000E94A91D0895882311F0FA0101C0FB01FD
:103A6000099508951F93CF93DF93FB0112811111E4
:103A70006BC0EC010E94250D8272C93CFCE5DF079A
:103A800009F450C0C0F4C53CECE5DE07E1F148F4B0
:103A9000C33C9CE5D90759F178F5C23CDC4521F1DE
:103AA00021C0C73C9CE5D90799F1B8F54FE75CE127
:103AB00064E97CE125C0CD3CFCE5DF0709F441C0A9
:103AC00050F4CB3CECE5DE0791F1B0F54DEC5CE158
:103AD00060EE7CE115C0C63D8CE5D807A8F1CD3578
:103AE000DD4591F111E030C00E94D61B2DC04CE4A1
:103AF0005CE16BE37CE104C04BE35CE16CE47CE102
:103B00000E942B1D21C044E95CE16FE77CE1F8CF06
:103B10004AEB5CE167EA7CE1F3CF47EA5CE16AEB00
:103B20007CE1EECF40EE5CE16DEC7CE1E9CF47E07B
:103B30005DE168EF7CE1E4CF48EF5CE167E07DE1C7
:103B4000DFCF81E00E94241C812FDF91CF911F9154
:103B50000895859A21B32F7D31B330624FB7F89421
:103B6000FC01CB01880F991F680F791F6E0F7F1F13
:103B7000E617F70789F0819198E031BB000000C09B
:103B800087FF21BB880F000000C000C000C021BB20
:103B900000C09A9591F7ECCF4FBF8FE594E0019765
:103BA000F1F700C00000089583E290E00E944B30DE
:103BB000823281F484E290E00E944B30823151F4F1
:103BC00085E290E00E944B3091E0843209F090E071
:103BD000892F01C080E081700895CF93C82F811193
:103BE00002C06FEF01C062E283E290E00E946930A0
:103BF000C11102C06FEF01C062E184E290E00E9457
:103C00006930C11102C06FEF01C064E285E290E04B
:103C10000E946930CF910895089586E290E00E9455
:103C20004B30682F70E080E090E008950895CF93C6
:103C3000C62F0E94161E6C2F86E290E00E9469300B
:103C4000CF91089580E00E94ED1D60E070E0CB010F
:103C50000E94171E0E9452220E942C2381E00E9483
:103C6000ED1D08950E940C1E0E940D1E0E94161E3E
:103C70000E94D41D811102C00E94221E0895CF937C
:103C8000FB01C281CC23E9F09C0122513F45203148
:103C9000310520F482510E943C230CC08031FFE5A5
:103CA0009F0751F481E00E94200943E062E081E037
:103CB0000E94F003C0E018C081319F45A9F482E062
:103CC000F2CF8031EFE59E0711F481E004C081312D
:103CD0009F4549F482E00E942C0943E062E081E0C4
:103CE0000E94F00301C0C1E08C2FCF9108952FEF07
:103CF000FC0120830895CF93DF93EC018881813804
:103D0000D1F070F4803851F50E946B1C2FEF829F28
:103D1000C001112468EC70E00E94782F69831EC0F6
:103D2000823861F08338D1F40E94651C89830E9437
:103D3000681C8A8313C00E94281C0FC00E94EA1CC2
:103D4000873230F08F3530F08E3930F083E005C0A7
:103D500080E003C081E001C082E08983DF91CF91E0
:103D600008951F93CF93DF93EC0188818138D9F0B8
:103D700078F4803899F5198128EC129F112D1124BF
:103D80000E94681CC82F0E94651C412F6C2F23C005
:103D90008238A9F0833811F50E946B1C9981482F55
:103DA0006A81892F18C089810E940A1C898181112A
:103DB00003C00E94E71B12C00E94DA1B0FC0E981FA
:103DC000E43028F4F0E0EB54FD4F808101C08FE730
:103DD0000E94E41C03C090E00E94611CDF91CF911F
:103DE0001F910895EF92FF920F931F93CF93DF934C
:103DF000EC01062F0196E8814E2F50E0FA01319731
:103E0000E331F10508F09AC0EE59FF4F0C94E12F11
:103E100019828AE056C08981823039F0833061F09E
:103E2000813029F50E948D2702C00E940D1E9A83C1
:103E30008B837C836D8384C07E0182E0E80EF11C5D
:103E400010E0812F0E941212F70181937F011F5F02
:103E50001A30B9F775C08981823049F46A817B8153
:103E60008C819D810E94E72F0E94171E69C0602FE0
:103E7000CE010E94771E64C04B816A8189810E94B5
:103E800016229C838D835CC02C813D8132272327A1
:103E900032274B816A8189810E94372251C00E945A
:103EA00052224EC00E94B11E4BC00E947B1E48C0D1
:103EB0000E94721745C00E94E32224C00E94E5229E
:103EC00099838A833DC06B8170E089819A81AE01BC
:103ED0004C5F5F4F9827892798270E94E82230C0BF
:103EE0006B8170E089819A81AE014C5F5F4F9827AA
:103EF000892798270E940B2323C00E942C2320C0CF
:103F00000E94032289831CC06B8170E089819A81A1
:103F1000AE014C5F5F4F9827892798270E94932214
:103F20000FC06B8170E089819A81AE014C5F5F4F59
:103F30009827892798270E94B52202C08FEF88838F
:103F4000602FCE010E947E28CDB7DEB7E6E00C944C
:103F500016300895FC01680F791F8FEF91E3E61783
:103F6000F70771F02191822728E030E087FF03C036
:103F7000880F892701C0880F21503109B9F7EFCF89
:103F80000895CF93DF93EC01FB018281882309F42C
:103F900072C1C330FDE5DF0760F4CA3F9CE5D90775
:103FA000D0F49E0122503C452431310508F064C113
:103FB00012C0C53AEDE5DE0771F030F4C1369DE57B
:103FC000D90709F059C107C09E012D5A3D4523303C
:103FD000310508F051C10E942C0E9093BF038093CD
:103FE000BE03C231ECE5DE0709F405C108F04BC0A1
:103FF000C9308CE5D80709F4D2C000F5C530ECE52E
:10400000DE0709F4B9C078F4C3308CE5D80709F4A9
:10401000AAC008F0AEC0C230DC4509F022C18091D0
:10402000BE038160A3C0C730FCE5DF0709F4AFC061
:1040300008F0B1C08091BE03806198C0CD309CE58E
:10404000D90709F4C2C058F4CB30FCE5DF0709F406
:10405000B0C008F0B6C08091BE038860A6C0CF3063
:104060009CE5D90709F4BFC008F4B2C0C031FCE533
:10407000DF0709F4BCC0C131DC4509F0F2C0809112
:10408000BE038F7B73C0CF3F9CE5D90709F4BEC048
:1040900088F5CA3FFCE5DF0709F472C0B8F4C43103
:1040A0009CE5D90709F4C1C008F4ABC0C531DC45B3
:1040B00009F0D7C08091BE0382FB222720F991E04E
:1040C000922790FB82F990FB83F950C0CC3F8CE59E
:1040D000D80709F481C008F456C0CD3FECE5DE07EF
:1040E00009F47DC0CE3FDC4509F0BBC08091BF0321
:1040F00082605DC0C1368DE5D80709F4A6C068F4BA
:10410000C130EDE5DE0709F49CC008F484C0C2307C
:10411000DD4509F0A6C080E095C0CD3A9DE5D90700
:10412000F1F058F4C53ADD4509F09BC08091BE031B
:10413000982F909590FB80F919C0CE3A8DE5D8075D
:10414000E1F1CF3ADD4509F08CC08091BF0383FBDC
:10415000222720F991E0922790FB83F980C080917B
:10416000BF0388607CC08091BE0382608093BE03E1
:1041700078C08091BE0319C08091BE038860F6CFDD
:104180008091BF0314C08091BF03826068C080919A
:10419000BE038062EBCF8091BE038064E7CF0E94B4
:1041A00096088091BE038068E1CF8460DFCF816094
:1041B00056C08091BE038E7FD9CF8091BF03877F89
:1041C0004EC08091BE038D7FD1CF8091BE031CC0B5
:1041D0008091BE03877FCACF8091BF031AC08091B0
:1041E000BF038D7F3CC08091BE038F7EBFCF809187
:1041F000BE038F7DBBCF0E9496088091BE038F7750
:10420000B5CF8091BE03877F8B7FB0CF8091BF03F6
:104210008D7F8E7F24C08091BF03982F90959170E1
:104220008E7F892B90FB81F91AC00E94960880919D
:10423000BE0387FB222720F991E0922790FB87F9A4
:1042400095CF81E00E94C90E0CC08091BE0384FB13
:10425000222720F991E0922790FB84F987CF809361
:10426000BF038091BE039091BF030E943D0E0E9448
:10427000960880E001C081E0DF91CF910895A0E031
:10428000B0E0E5E4F1E20C94F92FE82FF0E0E25D14
:10429000FB4FD490282F26952695269530E0F901DE
:1042A000E253FB4F0491877010E0082E02C0159571
:1042B00007950A94E2F701701127F901E254FB4FC8
:1042C000E490F12C082E02C0F594E7940A94E2F7EA
:1042D00091E0E922FF24F901E255FB4FC491D0E0BF
:1042E00002C0D595C7958A95E2F7C170DD27011503
:1042F000110519F081EE0E941E05E114F10419F078
:1043000086EE0E941E058D2D0E943806E114F104F0
:1043100019F086EE0E94BF050115110519F081EE16
:104320000E94BF05CD2B19F08CE20E943806CDB754
:10433000DEB7E7E00C941530EF92FF920F931F93D6
:10434000CF93DF93EC01162F0AE08881882309F4CC
:1043500055C0813009F043C08981813041F47E012C
:1043600082E0E80EF11C8A810E94380609C0823082
:1043700049F47E01E2E0EE0EF11C8A810E941E05E6
:10438000E7012FC0833041F47E01F2E0EF0EF11C13
:104390008A810E94BF05F4CF843011F0219621C09C
:1043A0002A81229680E090E030E0205331092A30C3
:1043B000310558F4089FA001099F500D1124C9012F
:1043C000840F951F21962881EFCF009751F0EFE9D8
:1043D000FFE03197F1F700C000000197F6CF0E948F
:1043E0003F212196812F882309F4AFCFEFE9FFE029
:1043F0003197F1F700C000008150F5CFCDB7DEB79F
:10440000E6E00C94163084E0089550E0440F551F08
:104410002EE0629F400D511D11249A016CE8869F89
:10442000200D311D1124C901879608950F931F9304
:10443000CF93DF938430A0F46A3090F4473080F457
:104440000E9405228C010E944B3090E0D82FCC278F
:10445000C80101960E944B309E01282BC90102C061
:1044600080E090E0DF91CF911F910F9108950F931D
:104470001F93CF93DF93843080F46A3070F4473019
:1044800060F4E9010E9405228C016D2F0E946930C1
:104490006C2FC80101960E946930DF91CF911F9166
:1044A0000F910895A0E0B0E0E8E5F2E20C94F52F5A
:1044B000C12CD12CC0E0D0E0912CE12CF12C00E0FB
:1044C00010E05601AE0CBF1C0E94830390E0C81799
:1044D000D90754F4F801EE0FFF1FEA0DFB1DE2505F
:1044E000FF4F2591349102C021E030E0402F692D2B
:1044F0008C2F0E9437220F5F1F4F0730110521F7C5
:104500008EE0E80EF11C93948AE09812D8CF2196A1
:104510008CE8C80ED11CC430D10571F6CDB7DEB71A
:10452000EBE00C941130EF92FF920F931F93CF9317
:10453000DF93EA017A01E60EF71E8C01C801879627
:10454000CE15DF0569F0003322E0120720F40E9447
:104550004B30888301C0188221960F5F1F4FEECF2A
:10456000CDB7DEB7E6E00C941630EF92FF920F93D2
:104570001F93CF93DF93EA017A01E60EF71E8C01B9
:10458000C8018796CE15DF0559F0003322E01207E7
:1045900018F468810E94693021960F5F1F4FF0CF99
:1045A000CDB7DEB7E6E00C941630843048F47A30AC
:1045B00038F4673028F4462F672F0E94162208959A
:1045C00080E090E0089580E1089589EA91E00895FF
:1045D000EF92FF920F931F93CF93DF93EA017A013B
:1045E000E60EF71E8C01C801895A9D4FCE15DF05D6
:1045F00069F0093A21E0120720F40E944B308883C9
:1046000001C0188221960F5F1F4FEDCFCDB7DEB7E7
:10461000E6E00C941630EF92FF920F931F93CF9326
:10462000DF93EA017A01E60EF71E8C01C801895A70
:104630009D4FCE15DF0559F0093A21E0120718F415
:1046400068810E94693021960F5F1F4FEFCFCDB771
:10465000DEB7E6E00C941630CF93DF93C7E5D2E0E7
:1046600060E0CE010E9469302196C11584E0D80730
:10467000B9F7DF91CF910895A4E0B0E0E2E4F3E26E
:104680000C94F92FF82E8FE08F15F0F18FEF93E057
:104690000E944B30811138C007E512E0FF2069F01D
:1046A000011584E0180781F1C8010E944B30811187
:1046B00001C0FA940F5F1F4FF1CF19821A821B823B
:1046C0001C82DD24D39478018FEFE81AF80AC80120
:1046D0000E944B3089831A828823B1F09FEF980F94
:1046E000933058F48A83D9820E5F1F4FC7010E940E
:1046F0004B308B83882341F0780160E0CE01019636
:104700000E949C218701DFCF2496E7E00C941530AE
:10471000CF93DF9386319C4541F5EB010E94250D37
:10472000982F8A8120910C0230910D02882379F014
:104730009A7A81E009F480E08093A003911102C08D
:1047400069E201C065E3C9010E94C7260AC08091E1
:10475000A003811102C069E201C065E3C9010E94A2
:10476000CA260E94690D80E001C081E0DF91CF91EF
:1047700008950F931F93CF93DF93C42FD22FFC0183
:1047800082818823B1F04093A3030E9481279093F4
:10479000A2038093A10380E28C0F883008F04DC003
:1047A000C77081E001C0880FCA95EAF70E944206EF
:1047B00044C08091A303481330C08091A10390911D
:1047C000A2030E949927883C910538F510E21D0F3D
:1047D000CD17B9F080E28C0F883040F4C77081E0CB
:1047E00001C0880FCA95EAF70E944906183010F5F3
:1047F00081E09D2F977001C0880F9A95EAF70E947B
:104800004206802F0E9438061830B8F4D77081E035
:1048100001C0880FDA95EAF70AC080E28C0F883071
:1048200060F4C77081E001C0880FCA95EAF70E9462
:10483000490603C0802F0E943806DF91CF911F9157
:104840000F9108950F939C01CB01233F4CE5340752
:1048500031F188F4283DFCE53F07D9F0293D4CE5CE
:10486000340779F1273D3C45A9F506E221EE41EEFA
:1048700067ED7CE52BC0253FFCE53F07E1F0A8F0A4
:10488000263F3C4539F507E225EE46EE66EF7CE52E
:104890001DC007E225EE45EE68ED7CE517C006E297
:1048A00021EE40EE63EF7CE511C007E225EE44EE19
:1048B00064EF7CE50BC006E221EE42EE65EF7CE59D
:1048C00005C008E221E045EE69ED7CE50E94B923D0
:1048D00080E008C0FC018281882319F01092A303B4
:1048E00001C081E00F9108958EE14A9B02C0815082
:1048F000E1F74A9BFECF08955A9880E28A95F1F736
:104900005A9A0895FC012AE02A95F1F728E090E0F0
:1049100080E031E040E14A95F1F7880F4A9B02C000
:104920008160932700C0000040E14A95F1F72150D3
:1049300089F720E12A95F1F729B100C0000030E1A4
:104940003A95F1F722FB222720F992272081920F36
:1049500090830895A1E0B0E0E0EBF4E20C94FA2F2C
:1049600019828C017C01E60EF11C0E151F0551F019
:104970000E947424CE0101960E948224F801819342
:104980008F01F3CF81E09981911180E02196E6E0DB
:104990000C941630529A5A9A089552985A9AEA9A52
:1049A000E9E6F0E080818F7C80830895615091E09A
:1049B00001C0990F6A95EAF720E031E0992361F090
:1049C000492F482319F05A9A232701C05A9840E2E8
:1049D0004A95F1F79695F2CF222311F05A9A01C029
:1049E0005A9880E28A95F1F75A980895FF920F93AA
:1049F0001F93CF93DF93EC018C01060F111DC0179D
:104A0000D10741F0F9900E947C2468E08F2D0E942C
:104A1000D624F5CFCDB7DEB7E5E00C9417301F9262
:104A20000F920FB60F9211240F931F932F933F9362
:104A30004F935F936F937F938F939F93AF93BF93A6
:104A4000EF93FF93CF93DF931F92CDB7DEB7198219
:104A50000E947424CE0101960E948224082F06959C
:104A600006950695902F96959570202F2570920F9C
:104A7000292F237096959695920F877089135FC0A2
:104A8000898181115CC0043008F059C080E18A95A9
:104A9000F1F75A9A529A82E08A95F1F700C05A9833
:104AA00088E0089F80011124D801A15FBD4F1696B0
:104AB000ED91FC9117973097A9F06091AB0270913E
:104AC000AC0214962D913C911597260F371F119625
:104AD0008D919C911297680F791F13964C911397A3
:104AE0008C910995F801E15FFD4F6381662351F0D8
:104AF0008091AB029091AC0224813581820F931F8B
:104B00000E94F6240E947C2480E18A95F1F75A984D
:104B100052985A9A80E18A95F1F7F801E15FFD4FCA
:104B20006081662351F08091AB029091AC022181AB
:104B30003281820F931F0E94AA240E9474240F9036
:104B4000DF91CF91FF91EF91BF91AF919F918F91A5
:104B50007F916F915F914F913F912F911F910F9195
:104B60000F900FBE0F901F9018950F931F93CF9328
:104B7000DF93843091050CF06DC0EC01F894529AEB
:104B80005A9885E08A95F1F700009C2F96959570CC
:104B90002C2F2570920F892F83709695969523E080
:104BA000CC0FDD1F2A95E1F7980F8E01092B0E948B
:104BB0007C2484E08A95F1F700C068E0802F0E9491
:104BC000D62480E18A95F1F752985A9A4A9902C000
:104BD00000C0FCCF87E090E04A9B08C0019721F419
:104BE000529A5A9A789436C000C0F6CFFE01E15F1F
:104BF000FD4F6381662381F08091AB029091AC02FE
:104C000024813581820F931F0E94AA24811104C040
:104C1000529A5A9A78941FC00E94742480E28A950E
:104C2000F1F75A98529A80E18A95F1F7C15FDD4F0A
:104C30006881662351F08091AB029091AC0229818A
:104C40003A81820F931F0E94F6240E947C2478945C
:104C500081E001C080E0DF91CF911F910F91089515
:104C60009093C9028093C80208959093AA038093F9
:104C7000A90308950E94C313811103C08091A40366
:104C80000895E091A903F091AA03309729F00190CB
:104C9000F081E02D0995089580E00895E091A90341
:104CA000F091AA03309721F00280F381E02D09955D
:104CB00008952091A7033091A8032817390771F0B0
:104CC0009093A8038093A703E091A903F091AA030E
:104CD000309721F00680F781E02D09950895209105
:104CE000A5033091A6032817390771F09093A60306
:104CF0008093A503E091A903F091AA03309721F0D6
:104D00000084F185E02D09950895FC01329697E025
:104D100080E0915029F021912223D9F38F5FF9CFC0
:104D20000895662349F0FC01329608962191621796
:104D300029F0E817F907D1F780E0089581E0089598
:104D40009C01FC0132969FEF80E04191461789F06B
:104D50009F3F19F4411101C0982F8F5F8630A9F74A
:104D60009F3F39F0F901E90FF11D97FDFA95628334
:104D7000089508959C012A5F3F4FFC01428146132C
:104D800001C01282019682179307B9F708950E9415
:104D9000A02608950E94BA260895029626E0FC01F6
:104DA00011922A95E9F7089508950E94D42608954E
:104DB00083E08093AB030E94D5260895811102C041
:104DC00081E001C082E08093AB030E94D526089564
:104DD0000E94DE26089581E08093AB030E94D526D1
:104DE00008950E94EB26089508950E94F4260895E0
:104DF0000E94F52608950E94F42608950E94F42644
:104E000008950E94F4260895CF930E94FE260E94E2
:104E100047130E94FB26C0E08C2F0E9412128111C2
:104E200004C0CF5FCA30C1F701C081E0CF910895BF
:104E300085B7806885BF85B7806885BF08951F9254
:104E40000F920FB60F9211248F939F93AF93BF933E
:104E50008091AC03811113C08091CF049091D00454
:104E6000A091D104B091D2044196A11DB11D8093AF
:104E7000CF049093D004A093D104B093D204BF91F7
:104E8000AF919F918F910F900FBE0F901F9018952B
:104E90008091D704843031F10E947C041092AC03DD
:104EA00020E488E190E00FB6F894A8958093600024
:104EB0000FBE2093600083B7817F846083BF83B778
:104EC000816083BF7894889583B78E7F83BF0FB648
:104ED000F894A8958091600088618093600010929A
:104EE00060000FBE08950E9496080E9486040895EF
:104EF00082E084BD93E095BD9AEF97BD80936E00EC
:104F000008952FB7F8948091CF049091D004A09188
:104F1000D104B091D2042FBF08952FB7F8946091B7
:104F2000CF047091D0048091D1049091D2042FBF0E
:104F300008959C014FB7F8948091CF049091D004CC
:104F4000A091D104B091D2044FBF821B930B08955E
:104F5000CF92DF92EF92FF922FB7F894C090CF04D8
:104F6000D090D004E090D104F090D2042FBFA701DC
:104F70009601261B370B480B590BCA01B901FF904C
:104F8000EF90DF90CF90089578941F920F920FB614
:104F90000F9211248F939F93AF93BF938091CF046F
:104FA0009091D004A091D104B091D2040196A11D9A
:104FB000B11D8093CF049093D004A093D104B093FB
:104FC000D204BF91AF919F918F910F900FBE0F9020
:104FD0001F90189581E08093E00080E28093D800D4
:104FE0001092C9008FE19EE40197F1F700C0000024
:104FF00087E090EBDC018093E0049093E104A093C0
:10500000E204B093E3049CE088E10FB6F894A8951D
:10501000809360000FBE90936000FFCF9CE088E11A
:105020000FB6F894A895809360000FBE909360002F
:10503000FFCF8091B80308950895CF93DF9321E0C7
:105040002093E9002FEF3091E800215035FD06C094
:1050500035ED3A95F1F700002111F5CF2091E800E8
:1050600025FF14C0EC0140E050E068E070E00E94D1
:10507000932A8091E8008E778093E80088E0FE0113
:10508000A0EBB3E001900D928A95E1F7DF91CF910B
:1050900008958093AD037093AF036093AE03809146
:1050A000D7048430F9F48093E9008FEF9091E80001
:1050B000815095FD06C095ED9A95F1F7000081119C
:1050C000F5CF8091E80085FF0DC040E050E063E03F
:1050D00070E08DEA93E00E94932A8091E8008E7739
:1050E0008093E8000895BC0184E00E944928089557
:1050F000BC0183E00E94492808950895CF9360324F
:1051000019F52091D7042430F9F4C091E900CF704B
:105110003091EC00232F217030FD20E8C22B22E0DB
:105120002093E9002091E80020FF0BC040E050E010
:1051300060E270E00E94932A8091E8008E7780936D
:10514000E800CF70C093E900CF9108958091D60414
:10515000811109C00E94632C0E94C02C8091E20042
:1051600084608093E20008951092D60408950E940E
:10517000F12608956091D30481E0611101C080E0BF
:105180000E94D82608959091D70481E0943009F0C8
:1051900080E06091D3040E94DE26089542E061EC35
:1051A00081E00E94DC2B42E261EC84E00E94DC2B77
:1051B00042E261EC82E00E94DC2B42E260EC83E0A0
:1051C0000E94DC2B9091D70481E0943009F080E0BC
:1051D0006091D3040E94E82608958091D904833019
:1051E00009F463C030F4813071F0823009F49DC05D
:1051F00008958A3009F489C08B3009F46EC0893073
:1052000009F0ABC020C08091D804813A09F0A5C054
:105210008091E800877F8093E8008091DC04909182
:10522000DD04892B21F468E080EB93E003C060E0AB
:1052300080E090E070E00E941D2B8091E8008B7769
:105240008093E80008958091D804813209F085C0E8
:105250008091DC049091DD04009719F0029709F029
:105260007CC08091E800877F8093E8008091E8000F
:1052700082FD05C08091D7048111F8CF6EC02091C6
:10528000F3008091F20090E0922B029731F480912C
:10529000F100813011F0863021F48091F10080938B
:1052A000B8038091E8008B7754C08091D804813A8C
:1052B00009F053C08091DC049091DD04892B09F042
:1052C0004CC08091E800877F8093E8008091E800DF
:1052D00080FFFCCF8091390237C08091D8048132A1
:1052E000E1F58091DC049091DD04892BB1F580918A
:1052F000E800877F8093E8000E94112C8091DA04F7
:10530000809339020E94960808958091D8048132D2
:1053100021F58091E800877F8093E8000E94112C9E
:105320008091DB048093B90308958091D804813A79
:10533000A1F48091E800877F8093E8008091E800E5
:1053400080FFFCCF8091B9038093F1008091E80049
:105350008E778093E8000E94112C089584B7877F90
:1053600084BF0FB6F894A8958091600088618093FF
:105370006000109260000FBE90E080E80FB6F894D5
:1053800080936100909361000FBE0E94EB26089508
:105390000E94632C0E94C02CE2EEF0E080818460C9
:1053A000808378940E944B2F08958DE292E00E94B2
:1053B000352608958091D7048530A9F48091D704CB
:1053C000853079F40E9448278091D5048823B1F371
:1053D0000E940427882391F30E947D2A0E94960848
:1053E000EDCF0E9473270895A0E2B0E0EAEFF9E262
:1053F0000C94FE2F8091D704843011F583E08093C4
:10540000E9008091E80082FF1BC08091E80085FFE1
:105410000AC040E050E060E270E0CE0101960E94D8
:10542000D82A91E001C090E08091E8008B778093CA
:10543000E800992329F060E2CE0101960E94F21E55
:10544000A096E2E00C941A300E94272A0895292F92
:10545000332723303105C9F060F42130310581F064
:105460002230310509F041C08BE590E02EE035E0B7
:1054700040C021323105E1F02232310531F135C031
:1054800082E190E029E635E034C09927813091052A
:1054900049F028F0029749F5EEEDF4E005C0EAE0A6
:1054A000F5E002C0E0EFF4E0849190E09F0121C0BC
:1054B00063307105D0F4660F771FFB01EE53FD4F8B
:1054C0002081318189E090E014C06330710568F477
:1054D000FB01EE0FFF1FE454FD4F20813181FB01E2
:1054E000E754FD4F808190E004C080E090E020E030
:1054F00030E0FA0131832083089580E189BD82E1A3
:1055000089BD09B400FEFDCF8091D8008F7D8093C6
:10551000D8008091E00082608093E0008091E000FC
:1055200081FDFCCF0895A0E0B0E0E9E9FAE20C9437
:10553000F82FEC018B017A010E94302C811133C0CD
:10554000E114F10439F0F70180819181081B190BF6
:10555000C80FD91FC12CD12C0115110519F180914B
:10556000E80085FD16C08091E8008E778093E80002
:10557000E114F10449F0F70180819181C80ED91E30
:10558000D182C08285E00FC00E94302C882321F395
:105590000AC089918093F10001501109FFEFCF1AE1
:1055A000DF0ADACF80E0CDB7DEB7E8E00C94143044
:1055B000A0E0B0E0EEEDFAE20C94F82FEC018B01E4
:1055C0007A010E94302C811133C0E114F10439F0CA
:1055D000F70180819181081B190BC80FD91FC12CBD
:1055E000D12C0115110519F18091E80085FD16C037
:1055F0008091E8008B778093E800E114F10449F092
:10560000F70180819181C80ED91ED182C08285E0C8
:105610000FC00E94302C882321F30AC08091F10032
:10562000899301501109FFEFCF1ADF0ADACF80E02A
:10563000CDB7DEB7E8E00C9414302091DE04309151
:10564000DF042617370748F06115710539F42091FA
:10565000E8002E772093E80001C0B901FC0120E0AA
:105660006115710579F18091D7048823F1F18530B6
:10567000F1F18091E80083FD3CC08091E80082FD5B
:105680002EC08091E80080FFEBCF2091F300809145
:10569000F20090E0922B6115710551F08830910570
:1056A00038F421912093F100615071090196F3CFF4
:1056B00021E0089709F020E08091E8008E77809340
:1056C000E800CECF2111CFCF0AC08091D704882324
:1056D00061F0853061F08091E80083FD0AC080911F
:1056E000E80082FFF2CF80E0089582E0089583E031
:1056F000089581E008952091DE043091DF0426179B
:10570000370748F06115710539F42091E8002E77CC
:105710002093E80001C0B901FC0120E0611571058A
:1057200091F18091D704882309F440C0853009F4B1
:105730003FC08091E80083FD3DC08091E80082FD7C
:105740002FC08091E80080FFE9CF2091F300809185
:10575000F20090E0922B6115710559F088309105A7
:1057600040F424912093F100319661507109019623
:10577000F2CF21E0089709F020E08091E8008E77D1
:105780008093E800CBCF2111CCCF0AC08091D70401
:10579000882361F0853061F08091E80083FD0AC0C4
:1057A0008091E80082FFF2CF80E0089582E00895C2
:1057B00083E0089581E00895982F973068F59093DD
:1057C000E900981739F07091EC002091ED005091AC
:1057D000F00003C0242F762F50E021FD02C09F5F10
:1057E000ECCF3091EB003E7F3093EB003091ED0039
:1057F0003D7F3093ED003091EB0031603093EB0052
:105800007093EC002093ED005093F0002091EE0097
:1058100027FDE5CF80E008958F708093E90081E057
:1058200008958091D80487FF11C08091E80082FD1F
:1058300005C08091D7048111F8CF11C08091E80094
:105840008B770BC08091D704882349F08091E800C2
:1058500080FFF8CF8091E8008E778093E80008956C
:105860002091E4003091E50095E64091EC00842F12
:10587000817040FF23C08091E80080FD1DC08091B1
:10588000D704882399F0853099F08091EB0085FD4D
:1058900011C04091E4005091E5002417350729F329
:1058A000915011F09A01E1CF84E0089582E00895CB
:1058B00083E0089581E0089580E008954091E80034
:1058C00042FFDDCF08950E94D22C0E94DA2CE0EE38
:1058D000F0E0808181608083E8EDF0E080818F7767
:1058E000808319BCA7EDB0E08C918E7F8C93808172
:1058F0008F7E80831092D60408950F931F93CF93C9
:10590000DF930E94D22C0E94DA2CC8EDD0E088816F
:105910008F77888388818068888388818F7D88835A
:1059200019BC1092D7041092D3041092D50410928F
:10593000D40400EE10E0F80180818B7F80838881A1
:105940008160888342E060E080E00E94DC2BE1EE31
:10595000F0E080818E7F8083E2EEF0E080818160E4
:105960008083808188608083F80180818E7F80833E
:10597000888180618883DF91CF911F910F91089575
:10598000E8EDF0E080818F7E8083E7EDF0E08081BC
:105990008160808384E082BF81E08093D6040E948E
:1059A0007D2C0895E8EDF0E080818E7F8083109259
:1059B000E20008951092DA001092E10008951F921B
:1059C0000F920FB60F9211242F933F934F935F9333
:1059D0006F937F938F939F93AF93BF93EF93FF93B7
:1059E0008091E10082FF0BC08091E20082FF07C03E
:1059F0008091E1008B7F8093E1000E944A2F80918B
:105A0000DA0080FF1FC08091D80080FF1BC080910A
:105A1000DA008E7F8093DA008091D90080FF0DC07C
:105A200080E189BD82E189BD09B400FEFDCF81E03E
:105A30008093D7040E94A62805C019BC1092D704F1
:105A40000E94B4288091E10080FF19C08091E2009B
:105A500080FF15C08091E2008E7F8093E2008091EC
:105A6000E20080618093E2008091D80080628093A0
:105A7000D80019BC85E08093D7040E94BA28809191
:105A8000E10084FF30C08091E20084FF2CC080E1FF
:105A900089BD82E189BD09B400FEFDCF8091D800A7
:105AA0008F7D8093D8008091E1008F7E8093E1000C
:105AB0008091E2008F7E8093E2008091E20081601D
:105AC0008093E2008091D304882311F084E007C022
:105AD0008091E30087FD02C081E001C083E08093F4
